:020000040000FA
:0400000007EF00F016
:100008001E829BED01F024EF02F0800E106E250E8B
:10001800116E000E126E000E136EECEC01F0000E65
:100028001B6E000E1A6EF28EF290F286F292F28831
:10003800F090F086F19CF18A0E0EC16EC30EC216C6
:10004800C09EC050F80B0109C06EC050C70B100904
:10005800C06EC280938093829388938A938C938E88
:10006800060E29EC02F0C282C2B23DEF00F03FEF6B
:1000780000F038EF00F01AC018F01BC019F0C4CF18
:100088001CF01D6A1CC002F01DC003F0000E056EB6
:10009800330E046E39EC01F002C01AF003C01BF0F5
:1000A80018501A1809E119501B18D8B45EEF00F05F
:1000B80060EF00F037EF00F01DBE6EEF00F01D504E
:1000C80007E1330E1C5CD8B06CEF00F06EEF00F067
:1000D80073EF00F0060E29EC02F037EF00F01DBEBA
:1000E80081EF00F01D5007E1660E1C5CD8B07FEF71
:1000F80000F081EF00F086EF00F0070E29EC02F027
:1001080037EF00F01DBE94EF00F01D5007E19A0E86
:100118001C5CD8B092EF00F094EF00F099EF00F07B
:10012800080E29EC02F037EF00F01DBEA7EF00F033
:100138001D5007E1CD0E1C5CD8B0A5EF00F0A7EF6D
:1001480000F0ACEF00F0090E29EC02F037EF00F0F8
:100158000A0E29EC02F037EF00F007EF00F0000E6E
:100168000B6E09BEBCEF00F0BAEF00F0C6EF00F06E
:10017800091E081E071E066C000E07220822092207
:10018800010E0B6E05BECDEF00F0CBEF00F0D7EF00
:1001980000F0051E041E031E026C000E032204223A
:1001A8000522010E0B1A000E0C6E000E0D6E000ECD
:1001B8000E6E000E0F6E0650071008100910D8B406
:1001C800E8EF00F0EAEF00F020EF01F0010E0A6E10
:1001D800F4EF00F0D89006360736083609360A2AB2
:1001E80009AEF9EF00F0FBEF00F0EEEF00F0D89069
:1001F8000C360D360E360F360650025C0750035883
:100208000850045809500558D8A00DEF01F00FEF19
:1002180001F018EF01F00650025E0750035A08502B
:10022800045A0950055A0C80D8900932083207320E
:1002380006320A2EFBEF00F00B50D8B426EF01F07F
:1002480028EF01F030EF01F00F1E0E1E0D1E0C6C92
:10025800000E0D220E220F220CC002F00DC003F07A
:100268000EC004F00FC005F01200000E076E05BEA8
:1002780042EF01F040EF01F048EF01F0046C051E79
:10028800D8B0052A010E076E03BE4FEF01F04DEFFF
:1002980001F055EF01F0026C031ED8B0032A010EDD
:1002A800071A000E096E000E086E04500510D8B427
:1002B80060EF01F062EF01F08AEF01F0010E066EC7
:1002C8006AEF01F0D89004360536062A05AE6FEFBE
:1002D80001F071EF01F066EF01F0D89008360936A9
:1002E8000450025C05500358D8A07DEF01F07FEF61
:1002F80001F084EF01F00450025E0550035A0880B3
:10030800D89005320432062E71EF01F00750D8B4A8
:1003180090EF01F092EF01F096EF01F0086C091EE2
:10032800D8B0092A08C002F009C003F0120006007C
:10033800F2A2A1EF01F0A3EF01F0A7EF01F0000E88
:100348002DEC02F0F292F0A0ACEF01F0AEEF01F06C
:10035800B2EF01F0010E2DEC02F0F090F2A0B7EF31
:1003680001F0B9EF01F0EAEF01F081B8BEEF01F05A
:10037800C0EF01F0C5EF01F0000E2DEC02F0E9EF3F
:1003880001F081BACAEF01F0CCEF01F0D1EF01F032
:10039800030E2DEC02F0E9EF01F081BCD6EF01F07D
:1003A800D8EF01F0DDEF01F0040E2DEC02F0E9EFDB
:1003B80001F081BEE2EF01F0E4EF01F0E9EF01F0B6
:1003C800050E2DEC02F0E9EF01F0F2901E921100FB
:1003D800949C948E10C006F011C007F012C008F06B
:1003E80013C009F0000E026E120E036E7A0E046E30
:1003F800000E056EB3EC00F002C014F003C015F057
:1004080004C016F005C017F014C002F015C003F0C0
:1004180016C004F017C005F0400E066E000E076EF9
:10042800000E086E000E096EB3EC00F00204AF6E09
:10043800AC94AC98AB8EAC9CAC8AAB9CAB881200ED
:100448001E901E92000109EF00F0026E02C0ADFF7F
:0A0458001200016E01C0ADFF12009A
:020000040020DA
:08000000FFFFFFFFFFFFFFFF00
:020000040030CA
:0E00000000051F1FFF8385FF0FC00FE00F409C
:00000001FF
