:020000040000FA
:0400000007EF00F016
:0A0008001E82A3ED05F032EF06F0B2
:100800000031300031003200330034003500360052
:070810003700380039000039
:10081800800E106E250E116E000E126E000E136EF5
:10082800FAEC05F0000E1B6E000E1A6EF28EF290B6
:10083800F286F292F288F090F086F19CF18A0E0E20
:10084800C16EC30EC216C09EC050F80B0109C06E1F
:10085800C050C70B1009C06EC280938093829394D6
:100868009388938A938C938E060E3BEC06F0C28293
:10087800C2B241EF04F043EF04F03CEF04F01AC0B9
:1008880018F01BC019F0C4CF1CF01D6A1CC002F080
:100898001DC003F0000E056E330E046E41EC05F02A
:1008A80002C01AF003C01BF018501A1809E11950B9
:1008B8001B18D8B462EF04F064EF04F03BEF04F0C7
:1008C8001DBE72EF04F01D5007E1330E1C5CD8B05A
:1008D80070EF04F072EF04F078EF04F00E0E3BECCA
:1008E80006F08A743BEF04F01DBE86EF04F01D503D
:1008F80007E1660E1C5CD8B084EF04F086EF04F0C4
:100908008CEF04F0100E3BEC06F08A743BEF04F019
:100918001DBE9AEF04F01D5007E19A0E1C5CD8B07A
:1009280098EF04F09AEF04F0A0EF04F0120E3BECFD
:1009380006F08A743BEF04F01DBEAEEF04F01D50C4
:1009480007E1CD0E1C5CD8B0ACEF04F0AEEF04F0BC
:10095800B4EF04F0140E3BEC06F08A743BEF04F09D
:10096800010E3BEC06F03BEF04F007EF00F0000E41
:100978000B6E09BEC4EF04F0C2EF04F0CEEF04F032
:10098800091E081E071E066C000E072208220922EF
:10099800010E0B6E05BED5EF04F0D3EF04F0DFEFC8
:1009A80004F0051E041E031E026C000E032204221E
:1009B8000522010E0B1A000E0C6E000E0D6E000EB5
:1009C8000E6E000E0F6E0650071008100910D8B4EE
:1009D800F0EF04F0F2EF04F028EF05F0010E0A6ED4
:1009E800FCEF04F0D89006360736083609360A2A8E
:1009F80009AE01EF05F003EF05F0F6EF04F0D8902B
:100A08000C360D360E360F360650025C075003586A
:100A18000850045809500558D8A015EF05F017EFED
:100A280005F020EF05F00650025E0750035A085003
:100A3800045A0950055A0C80D890093208320732F6
:100A480006320A2E03EF05F00B50D8B42EEF05F04E
:100A580030EF05F038EF05F00F1E0E1E0D1E0C6C62
:100A6800000E0D220E220F220CC002F00DC003F062
:100A78000EC004F00FC005F01200000E076E05BE90
:100A88004AEF05F048EF05F050EF05F0046C051E3D
:100A9800D8B0052A010E076E03BE57EF05F055EFD3
:100AA80005F05DEF05F0026C031ED8B0032A010EB5
:100AB800071A000E096E000E086E04500510D8B40F
:100AC80068EF05F06AEF05F092EF05F0010E066E8B
:100AD80072EF05F0D89004360536062A05AE77EF92
:100AE80005F079EF05F06EEF05F0D8900836093675
:100AF8000450025C05500358D8A085EF05F087EF35
:100B080005F08CEF05F00450025E0550035A08808A
:100B1800D89005320432062E79EF05F00750D8B484
:100B280098EF05F09AEF05F09EEF05F0086C091EA6
:100B3800D8B0092A08C002F009C003F01200060064
:100B4800F2A2A9EF05F0ABEF05F0B0EF05F0020E49
:100B58003FEC06F0F2928A74F0A0B5EF05F0B7EF1B
:100B680005F0BCEF05F0040E3FEC06F0F0908A7437
:100B7800F2A0C1EF05F0C3EF05F0F8EF05F081B87A
:100B8800C8EF05F0CAEF05F0D0EF05F0060E3FEC10
:100B980006F08A74F7EF05F081BAD5EF05F0D7EFC4
:100BA80005F0DDEF05F0080E3FEC06F08A74F7EF6C
:100BB80005F081BCE2EF05F0E4EF05F0EAEF05F09F
:100BC8000A0E3FEC06F08A74F7EF05F081BEEFEFEE
:100BD80005F0F1EF05F0F7EF05F00C0E3FEC06F02D
:100BE8008A74F7EF05F0F2901E921100949C948E8F
:100BF80010C006F011C007F012C008F013C009F0C9
:100C0800000E026E120E036E7A0E046E000E056E52
:100C1800BBEC04F002C014F003C015F004C016F0D9
:100C280005C017F014C002F015C003F016C004F098
:100C380017C005F0400E066E000E076E000E086E17
:100C4800000E096EBBEC04F00204AF6EAC94AC98D5
:100C5800AB8EAC9CAC8AAB9CAB8812001E901E92EB
:100C6800000EF86E080EF76E00010CEF04F0026E2D
:0E0C780002C0ADFF1200016E01C0ADFF120000
:020000040020DA
:08000000FFFFFFFFFFFFFFFF00
:020000040030CA
:0E00000000051F1FFF8385FF0FC00FE00F409C
:00000001FF
